{
  "contractName": "CallNoReturn",
  "abi": [
    {
      "constant": true,
      "inputs": [],
      "name": "noreturn",
      "outputs": [],
      "payable": false,
      "stateMutability": "pure",
      "type": "function"
    }
  ],
  "bytecode": "0x6080604052348015600f57600080fd5b5060868061001e6000396000f3fe608060405260043610603f576000357c0100000000000000000000000000000000000000000000000000000000900463ffffffff1680630f965a41146044575b600080fd5b348015604f57600080fd5b5060566058565b005b56fea165627a7a723058206ac50983540a2bfb19101216265b875e84d9528feb81446dfd4617944393a01c0029",
  "source": "pragma solidity >=0.5.0 <0.6.0;\r\n\r\ncontract CallNoReturn {\r\n    function noreturn() public pure {\r\n    }\r\n}\r\n\r\n",
  "sourcePath": "C:/git/Yasold/samples/truffle/contracts/CallNoReturn.sol",
  "compiler": {
    "name": "solc",
    "version": "0.5.0+commit.1d4f565a.Emscripten.clang"
  },
  "schemaVersion": "3.0.8",
  "updatedAt": "2019-11-16T15:27:44.070Z",
  "devdoc": {
    "methods": {}
  },
  "userdoc": {
    "methods": {}
  }
}