{
  "contractName": "Counter",
  "abi": [
    {
      "constant": true,
      "inputs": [],
      "name": "counter",
      "outputs": [
        {
          "internalType": "uint256",
          "name": "",
          "type": "uint256"
        }
      ],
      "payable": false,
      "stateMutability": "view",
      "type": "function"
    },
    {
      "constant": false,
      "inputs": [],
      "name": "increment",
      "outputs": [],
      "payable": false,
      "stateMutability": "nonpayable",
      "type": "function"
    },
    {
      "constant": false,
      "inputs": [
        {
          "internalType": "uint256",
          "name": "value",
          "type": "uint256"
        }
      ],
      "name": "add",
      "outputs": [],
      "payable": false,
      "stateMutability": "nonpayable",
      "type": "function"
    },
    {
      "constant": true,
      "inputs": [],
      "name": "fail",
      "outputs": [],
      "payable": false,
      "stateMutability": "pure",
      "type": "function"
    }
  ],
  "bytecode": "0x608060405234801561001057600080fd5b50610187806100206000396000f3fe608060405234801561001057600080fd5b506004361061004c5760003560e01c80631003e2d21461005157806361bc221a1461007f578063a9cc47181461009d578063d09de08a146100a7575b600080fd5b61007d6004803603602081101561006757600080fd5b81019080803590602001909291905050506100b1565b005b6100876100c3565b6040518082815260200191505060405180910390f35b6100a56100c9565b005b6100af61013f565b005b80600080828254019250508190555050565b60005481565b600061013d576040517f08c379a000000000000000000000000000000000000000000000000000000000815260040180806020018281038252600a8152602001807f6661696c206572726f720000000000000000000000000000000000000000000081525060200191505060405180910390fd5b565b600080815480929190600101919050555056fea265627a7a7231582091eb632c4fa6ca32890a0ad53baa77506b773dbf6b80ad1198dda7bd7d812b4364736f6c63430005100032",
  "source": "pragma solidity >=0.5.0 <0.6.0;\r\n\r\ncontract Counter {\r\n    uint public counter;\r\n    \r\n    function increment() public {\r\n        counter++;\r\n    }\r\n    \r\n    function add(uint value) public {\r\n        counter += value;\r\n    }\r\n    \r\n    function fail() public pure {\r\n        require(false, \"fail error\");\r\n    }\r\n}\r\n\r\n\r\n",
  "sourcePath": "C:\\git\\Yasold\\samples\\truffle\\contracts\\Counter.sol",
  "compiler": {
    "name": "solc",
    "version": "0.5.16+commit.9c3226ce.Emscripten.clang"
  },
  "schemaVersion": "3.0.23",
  "updatedAt": "2020-04-09T19:29:53.994Z",
  "devdoc": {
    "methods": {}
  },
  "userdoc": {
    "methods": {}
  }
}