{
  "contractName": "RlpHelper",
  "abi": [
    {
      "constant": true,
      "inputs": [
        {
          "internalType": "bytes",
          "name": "data",
          "type": "bytes"
        },
        {
          "internalType": "uint256",
          "name": "offset",
          "type": "uint256"
        }
      ],
      "name": "getRlpTotalLength",
      "outputs": [
        {
          "internalType": "uint256",
          "name": "",
          "type": "uint256"
        }
      ],
      "payable": false,
      "stateMutability": "pure",
      "type": "function"
    },
    {
      "constant": true,
      "inputs": [
        {
          "internalType": "bytes",
          "name": "data",
          "type": "bytes"
        },
        {
          "internalType": "uint256",
          "name": "offset",
          "type": "uint256"
        }
      ],
      "name": "getRlpLength",
      "outputs": [
        {
          "internalType": "uint256",
          "name": "",
          "type": "uint256"
        }
      ],
      "payable": false,
      "stateMutability": "pure",
      "type": "function"
    },
    {
      "constant": true,
      "inputs": [
        {
          "internalType": "bytes",
          "name": "data",
          "type": "bytes"
        },
        {
          "internalType": "uint256",
          "name": "offset",
          "type": "uint256"
        }
      ],
      "name": "getRlpOffset",
      "outputs": [
        {
          "internalType": "uint256",
          "name": "",
          "type": "uint256"
        }
      ],
      "payable": false,
      "stateMutability": "pure",
      "type": "function"
    },
    {
      "constant": true,
      "inputs": [
        {
          "internalType": "bytes",
          "name": "data",
          "type": "bytes"
        },
        {
          "internalType": "uint256",
          "name": "offset",
          "type": "uint256"
        }
      ],
      "name": "getRlpItem",
      "outputs": [
        {
          "internalType": "uint256",
          "name": "itemOffset",
          "type": "uint256"
        },
        {
          "internalType": "uint256",
          "name": "itemLength",
          "type": "uint256"
        }
      ],
      "payable": false,
      "stateMutability": "pure",
      "type": "function"
    },
    {
      "constant": true,
      "inputs": [
        {
          "internalType": "bytes",
          "name": "data",
          "type": "bytes"
        },
        {
          "internalType": "uint256",
          "name": "offset",
          "type": "uint256"
        }
      ],
      "name": "getRlpNumItems",
      "outputs": [
        {
          "internalType": "uint256",
          "name": "",
          "type": "uint256"
        }
      ],
      "payable": false,
      "stateMutability": "pure",
      "type": "function"
    },
    {
      "constant": true,
      "inputs": [
        {
          "internalType": "bytes",
          "name": "data",
          "type": "bytes"
        },
        {
          "internalType": "uint256",
          "name": "offset",
          "type": "uint256"
        }
      ],
      "name": "getRlpItems",
      "outputs": [
        {
          "internalType": "uint256[]",
          "name": "offsets",
          "type": "uint256[]"
        },
        {
          "internalType": "uint256[]",
          "name": "lengths",
          "type": "uint256[]"
        }
      ],
      "payable": false,
      "stateMutability": "pure",
      "type": "function"
    },
    {
      "constant": true,
      "inputs": [
        {
          "internalType": "bytes",
          "name": "data",
          "type": "bytes"
        },
        {
          "internalType": "uint256",
          "name": "offset",
          "type": "uint256"
        },
        {
          "internalType": "uint256",
          "name": "length",
          "type": "uint256"
        }
      ],
      "name": "rlpItemToBytes",
      "outputs": [
        {
          "internalType": "bytes",
          "name": "",
          "type": "bytes"
        }
      ],
      "payable": false,
      "stateMutability": "pure",
      "type": "function"
    },
    {
      "constant": true,
      "inputs": [
        {
          "internalType": "bytes",
          "name": "data",
          "type": "bytes"
        },
        {
          "internalType": "uint256",
          "name": "offset",
          "type": "uint256"
        }
      ],
      "name": "rlpItemToAddress",
      "outputs": [
        {
          "internalType": "address",
          "name": "",
          "type": "address"
        }
      ],
      "payable": false,
      "stateMutability": "pure",
      "type": "function"
    },
    {
      "constant": true,
      "inputs": [
        {
          "internalType": "bytes",
          "name": "data",
          "type": "bytes"
        },
        {
          "internalType": "uint256",
          "name": "offset",
          "type": "uint256"
        }
      ],
      "name": "rlpItemToBytes32",
      "outputs": [
        {
          "internalType": "bytes32",
          "name": "",
          "type": "bytes32"
        }
      ],
      "payable": false,
      "stateMutability": "pure",
      "type": "function"
    },
    {
      "constant": true,
      "inputs": [
        {
          "internalType": "bytes",
          "name": "data",
          "type": "bytes"
        },
        {
          "internalType": "uint256",
          "name": "offset",
          "type": "uint256"
        },
        {
          "internalType": "uint256",
          "name": "length",
          "type": "uint256"
        }
      ],
      "name": "rlpItemToUint256",
      "outputs": [
        {
          "internalType": "uint256",
          "name": "",
          "type": "uint256"
        }
      ],
      "payable": false,
      "stateMutability": "pure",
      "type": "function"
    }
  ],
  "bytecode": "0x608060405234801561001057600080fd5b506112fe806100206000396000f3fe608060405234801561001057600080fd5b506004361061009e5760003560e01c80636747c3bc116100665780636747c3bc146106045780638207a080146106dd57806399aa3275146107bd578063b1844f9f14610896578063c24275bd146109795761009e565b80631afe4eb1146100a35780634236f9d51461017c57806350f7ff5814610281578063584305ed1461035a5780635f35eb3a146104bc575b600080fd5b610166600480360360408110156100b957600080fd5b81019080803590602001906401000000008111156100d657600080fd5b8201836020820111156100e857600080fd5b8035906020019184600183028401116401000000008311171561010a57600080fd5b91908080601f016020809104026020016040519081016040528093929190818152602001838380828437600081840152601f19601f82011690508083019250505050505050919291929080359060200190929190505050610a52565b6040518082815260200191505060405180910390f35b61023f6004803603604081101561019257600080fd5b81019080803590602001906401000000008111156101af57600080fd5b8201836020820111156101c157600080fd5b803590602001918460018302840111640100000000831117156101e357600080fd5b91908080601f016020809104026020016040519081016040528093929190818152602001838380828437600081840152601f19601f82011690508083019250505050505050919291929080359060200190929190505050610a66565b604051808273ffffffffffffffffffffffffffffffffffffffff1673ffffffffffffffffffffffffffffffffffffffff16815260200191505060405180910390f35b6103446004803603604081101561029757600080fd5b81019080803590602001906401000000008111156102b457600080fd5b8201836020820111156102c657600080fd5b803590602001918460018302840111640100000000831117156102e857600080fd5b91908080601f016020809104026020016040519081016040528093929190818152602001838380828437600081840152601f19601f82011690508083019250505050505050919291929080359060200190929190505050610a7a565b6040518082815260200191505060405180910390f35b61041d6004803603604081101561037057600080fd5b810190808035906020019064010000000081111561038d57600080fd5b82018360208201111561039f57600080fd5b803590602001918460018302840111640100000000831117156103c157600080fd5b91908080601f016020809104026020016040519081016040528093929190818152602001838380828437600081840152601f19601f82011690508083019250505050505050919291929080359060200190929190505050610a8e565b604051808060200180602001838103835285818151815260200191508051906020019060200280838360005b83811015610464578082015181840152602081019050610449565b50505050905001838103825284818151815260200191508051906020019060200280838360005b838110156104a657808201518184015260208101905061048b565b5050505090500194505050505060405180910390f35b610589600480360360608110156104d257600080fd5b81019080803590602001906401000000008111156104ef57600080fd5b82018360208201111561050157600080fd5b8035906020019184600183028401116401000000008311171561052357600080fd5b91908080601f016020809104026020016040519081016040528093929190818152602001838380828437600081840152601f19601f8201169050808301925050505050505091929192908035906020019092919080359060200190929190505050610b8e565b6040518080602001828103825283818151815260200191508051906020019080838360005b838110156105c95780820151818401526020810190506105ae565b50505050905090810190601f1680156105f65780820380516001836020036101000a031916815260200191505b509250505060405180910390f35b6106c76004803603604081101561061a57600080fd5b810190808035906020019064010000000081111561063757600080fd5b82018360208201111561064957600080fd5b8035906020019184600183028401116401000000008311171561066b57600080fd5b91908080601f016020809104026020016040519081016040528093929190818152602001838380828437600081840152601f19601f82011690508083019250505050505050919291929080359060200190929190505050610ba4565b6040518082815260200191505060405180910390f35b6107a0600480360360408110156106f357600080fd5b810190808035906020019064010000000081111561071057600080fd5b82018360208201111561072257600080fd5b8035906020019184600183028401116401000000008311171561074457600080fd5b91908080601f016020809104026020016040519081016040528093929190818152602001838380828437600081840152601f19601f82011690508083019250505050505050919291929080359060200190929190505050610bb8565b604051808381526020018281526020019250505060405180910390f35b610880600480360360408110156107d357600080fd5b81019080803590602001906401000000008111156107f057600080fd5b82018360208201111561080257600080fd5b8035906020019184600183028401116401000000008311171561082457600080fd5b91908080601f016020809104026020016040519081016040528093929190818152602001838380828437600081840152601f19601f82011690508083019250505050505050919291929080359060200190929190505050610be5565b6040518082815260200191505060405180910390f35b610963600480360360608110156108ac57600080fd5b81019080803590602001906401000000008111156108c957600080fd5b8201836020820111156108db57600080fd5b803590602001918460018302840111640100000000831117156108fd57600080fd5b91908080601f016020809104026020016040519081016040528093929190818152602001838380828437600081840152601f19601f8201169050808301925050505050505091929192908035906020019092919080359060200190929190505050610bf9565b6040518082815260200191505060405180910390f35b610a3c6004803603604081101561098f57600080fd5b81019080803590602001906401000000008111156109ac57600080fd5b8201836020820111156109be57600080fd5b803590602001918460018302840111640100000000831117156109e057600080fd5b91908080601f016020809104026020016040519081016040528093929190818152602001838380828437600081840152601f19601f82011690508083019250505050505050919291929080359060200190929190505050610c0f565b6040518082815260200191505060405180910390f35b6000610a5e8383610c23565b905092915050565b6000610a728383610c44565b905092915050565b6000610a868383610c64565b905092915050565b6060806060610a9d8585610e6b565b905060008151905080604051908082528060200260200182016040528015610ad45781602001602082028038833980820191505090505b50935080604051908082528060200260200182016040528015610b065781602001602082028038833980820191505090505b50925060008090505b81811015610b8457828181518110610b2357fe5b602002602001015160000151858281518110610b3b57fe5b602002602001018181525050828181518110610b5357fe5b602002602001015160200151848281518110610b6b57fe5b6020026020010181815250508080600101915050610b0f565b5050509250929050565b6060610b9b848484610f2b565b90509392505050565b6000610bb08383610fdb565b905092915050565b600080610bc3611295565b610bcd85856111b4565b90508060000151816020015192509250509250929050565b6000610bf183836111f0565b905092915050565b6000610c0684848461125f565b90509392505050565b6000610c1b8383611284565b905092915050565b600081610c308484610c64565b610c3a8585610fdb565b0301905092915050565b60006c010000000000000000000000008260208501015104905092915050565b600080838381518110610c7357fe5b602001015160f81c60f81b905060f760f81b817effffffffffffffffffffffffffffffffffffffffffffffffffffffffffffff19161115610d1257600060f78260f81c0360ff169050600080600090505b82811015610d0657600882901b91508686826001010181518110610ce457fe5b602001015160f81c60f81b60f81c60ff16820191508080600101915050610cc4565b50809350505050610e65565b60bf60f81b817effffffffffffffffffffffffffffffffffffffffffffffffffffffffffffff19161115610d5557600160bf8260f81c030360ff16915050610e65565b60b760f81b817effffffffffffffffffffffffffffffffffffffffffffffffffffffffffffff19161115610de757600060b78260f81c0360ff169050600080600090505b82811015610ddb57600882901b91508686826001010181518110610db957fe5b602001015160f81c60f81b60f81c60ff16820191508080600101915050610d99565b50809350505050610e65565b608060f81b817effffffffffffffffffffffffffffffffffffffffffffffffffffffffffffff19161115610e275760808160f81c0360ff16915050610e65565b608060f81b817effffffffffffffffffffffffffffffffffffffffffffffffffffffffffffff19161415610e5f576000915050610e65565b60019150505b92915050565b60606000610e7984846111f0565b905080604051908082528060200260200182016040528015610eb557816020015b610ea26112af565b815260200190600190039081610e9a5790505b509150610ec0611295565b610eca85856111b4565b905060008160000151905060008090505b83811015610f2157610eed87836111b4565b925082858281518110610efc57fe5b6020026020010181905250826020015183600001510191508080600101915050610edb565b5050505092915050565b606080826040519080825280601f01601f191660200182016040528015610f615781602001600182028038833980820191505090505b50905060008085602088010191506020830190505b60208510610f995781518152602081019050602082019150602085039450610f76565b6000851415610fad57829350505050610fd4565b60006001866020036101000a03905080198351168183511680821784525050839450505050505b9392505050565b600080838381518110610fea57fe5b602001015160f81c60f81b905060f760f81b817effffffffffffffffffffffffffffffffffffffffffffffffffffffffffffff1916111561108e57600060f78260f81c0360ff169050600080600090505b8281101561107d57600882901b9150868682600101018151811061105b57fe5b602001015160f81c60f81b60f81c60ff1682019150808060010191505061103b565b5080826001010193505050506111ae565b60bf60f81b817effffffffffffffffffffffffffffffffffffffffffffffffffffffffffffff191611156110ce5760bf8160f81c0360ff169150506111ae565b60b760f81b817effffffffffffffffffffffffffffffffffffffffffffffffffffffffffffff1916111561116557600060b78260f81c0360ff169050600080600090505b8281101561115457600882901b9150868682600101018151811061113257fe5b602001015160f81c60f81b60f81c60ff16820191508080600101915050611112565b5080826001010193505050506111ae565b608060f81b817effffffffffffffffffffffffffffffffffffffffffffffffffffffffffffff191611156111a857600160808260f81c030160ff169150506111ae565b60019150505b92915050565b6111bc611295565b6111c68383610c64565b8160200181815250508181602001516111df8585610fdb565b030181600001818152505092915050565b60006111fa611295565b61120484846111b4565b905060008160000151905060008260200151836000015101905060008090505b8183101561125257808060010191505061123e87846111b4565b935083602001518460000151019250611224565b8094505050505092915050565b6000826020850101519050816020036101000a818161127a57fe5b0490509392505050565b600081602084010151905092915050565b604051806040016040528060008152602001600081525090565b60405180604001604052806000815260200160008152509056fea265627a7a723158207d35f29126b8e8e343074cd2b9429fb9dda3ab3a8ca62191260c2d50a596fc5264736f6c63430005100032",
  "source": "pragma solidity >=0.5.0 <0.6.0;\r\n\r\nimport \"./RlpLibrary.sol\";\r\n\r\ncontract RlpHelper {\r\n    function getRlpTotalLength(bytes memory data, uint offset) public pure returns (uint) {\r\n        return RlpLibrary.getRlpTotalLength(data, offset);\r\n    }\r\n    \r\n    function getRlpLength(bytes memory data, uint offset) public pure returns (uint) {\r\n        return RlpLibrary.getRlpLength(data, offset);\r\n    }\r\n    \r\n    function getRlpOffset(bytes memory data, uint offset) public pure returns (uint) {\r\n        return RlpLibrary.getRlpOffset(data, offset);\r\n    }\r\n    \r\n    function getRlpItem(bytes memory data, uint offset) public pure returns (uint itemOffset, uint itemLength) {\r\n        RlpLibrary.RlpItem memory item = RlpLibrary.getRlpItem(data, offset);\r\n        \r\n        return (item.offset, item.length);\r\n    }\r\n    \r\n    function getRlpNumItems(bytes memory data, uint offset) public pure returns (uint) {\r\n        return RlpLibrary.getRlpNumItems(data, offset);\r\n    }\r\n    \r\n    function getRlpItems(bytes memory data, uint offset) public pure returns (uint[] memory offsets, uint[] memory lengths) {\r\n        RlpLibrary.RlpItem[] memory items = RlpLibrary.getRlpItems(data, offset);\r\n        \r\n        uint nitems = items.length;\r\n        \r\n        offsets = new uint[](nitems);\r\n        lengths = new uint[](nitems);\r\n        \r\n        for (uint k = 0; k < nitems; k++) {\r\n            offsets[k] = items[k].offset;\r\n            lengths[k] = items[k].length;\r\n        }\r\n    }\r\n    \r\n    function rlpItemToBytes(bytes memory data, uint offset, uint length) public pure returns (bytes memory) {\r\n        return RlpLibrary.rlpItemToBytes(data, offset, length);\r\n    }\r\n    \r\n    function rlpItemToAddress(bytes memory data, uint offset) public pure returns(address) {\r\n        return RlpLibrary.rlpItemToAddress(data, offset);\r\n    }\r\n    \r\n    function rlpItemToBytes32(bytes memory data, uint offset) public pure returns(bytes32) {\r\n        return RlpLibrary.rlpItemToBytes32(data, offset);\r\n    }\r\n    \r\n    function rlpItemToUint256(bytes memory data, uint offset, uint length) public pure returns(uint256) {\r\n        return RlpLibrary.rlpItemToUint256(data, offset, length);\r\n    }\r\n}\r\n\r\n",
  "sourcePath": "C:\\git\\Yasold\\samples\\truffle\\contracts\\rlp\\RlpHelper.sol",
  "compiler": {
    "name": "solc",
    "version": "0.5.16+commit.9c3226ce.Emscripten.clang"
  },
  "schemaVersion": "3.0.23",
  "updatedAt": "2020-04-09T09:34:41.462Z",
  "devdoc": {
    "methods": {}
  },
  "userdoc": {
    "methods": {}
  }
}